:100000000C942A000C943C000C943C000C943C0092
:100010000C943C000C943C000C943C000C943C0070
:100020000C943C000C943C000C943C000C943C0060
:100030000C943C000C943C000C943C000C943C0050
:100040000C943C000C943C000C943C000C943C0040
:100050000C943C0011241FBECFE5D8E0DEBFCDBF1D
:1000600020E0A0E6B0E001C01D92A236B207E1F7A1
:100070000E94E5000C9420010C940000883058F098
:1000800098EF980F983048F090EF980F983040F024
:100090008851E0E307C0E9E305C0892FE6E302C029
:1000A000892FE3E3662319F0613081F00895F0E0D1
:1000B000418121E030E0B90102C0660F771F8A95C7
:1000C000E2F7CB018095842381830895F0E041819C
:1000D00021E030E0B90102C0660F771F8A95E2F790
:1000E000CB01842B81830895883058F098EF980FC6
:1000F000983048F090EF980F983040F08851E0E346
:1001000007C0E9E305C0892FE6E302C0892FE3E3D6
:10011000F0E0408121E030E0B90102C0660F771FB6
:100120008A95E2F7CB0184230895883058F098EF40
:10013000980F983048F090EF980F983040F0885121
:10014000E0E307C0E9E305C0892FE6E302C0892F99
:10015000E3E3662381F06130E1F4F0E0428121E0E5
:1001600030E0B90102C0660F771F8A95E2F7CB0134
:10017000842B82830895F0E0428121E030E0B901D0
:1001800002C0660F771F8A95E2F7CB018095842322
:1001900082830895FC0180810E94740091E08111A6
:1001A00001C090E0892F0895FC0180810E943E00EB
:1001B000089561E0FC0180810E949500089560E04F
:1001C000FC0180810E9495000895CF93DF9300D0B9
:1001D0001F92CDB7DEB7198281E08A8382E08B83DC
:1001E00060E0CE0101960E94D40060E0CE0102964C
:1001F0000E94D4006FEFCE0103960E94D400CE017E
:1002000001960E94CA0080936100CE0102960E946E
:10021000CA008093600080916100882331F01092C1
:100220006100CE0103960E94D9008091600088236E
:1002300031F310926000CE0103960E94DF00DFCF01
:04024000F894FFCF60
:00000001FF
